{
  "contractName": "TaskManager",
  "abi": [
    {
      "inputs": [],
      "stateMutability": "nonpayable",
      "type": "constructor"
    },
    {
      "inputs": [
        {
          "internalType": "string",
          "name": "taskmsg",
          "type": "string"
        }
      ],
      "name": "CreateTask",
      "outputs": [],
      "stateMutability": "nonpayable",
      "type": "function"
    },
    {
      "inputs": [],
      "name": "getMTasks",
      "outputs": [
        {
          "components": [
            {
              "internalType": "uint256",
              "name": "taskId",
              "type": "uint256"
            },
            {
              "internalType": "string",
              "name": "msg",
              "type": "string"
            },
            {
              "internalType": "bool",
              "name": "isDeleted",
              "type": "bool"
            }
          ],
          "internalType": "struct TaskManager.Task[]",
          "name": "",
          "type": "tuple[]"
        }
      ],
      "stateMutability": "view",
      "type": "function"
    },
    {
      "inputs": [
        {
          "internalType": "uint256",
          "name": "id",
          "type": "uint256"
        }
      ],
      "name": "getTaskbyUser",
      "outputs": [
        {
          "components": [
            {
              "internalType": "uint256",
              "name": "taskId",
              "type": "uint256"
            },
            {
              "internalType": "string",
              "name": "msg",
              "type": "string"
            },
            {
              "internalType": "bool",
              "name": "isDeleted",
              "type": "bool"
            }
          ],
          "internalType": "struct TaskManager.Task[]",
          "name": "",
          "type": "tuple[]"
        }
      ],
      "stateMutability": "view",
      "type": "function"
    },
    {
      "inputs": [],
      "name": "getUsers",
      "outputs": [
        {
          "internalType": "address",
          "name": "",
          "type": "address"
        }
      ],
      "stateMutability": "view",
      "type": "function"
    },
    {
      "inputs": [],
      "name": "getOwner",
      "outputs": [
        {
          "internalType": "address",
          "name": "",
          "type": "address"
        }
      ],
      "stateMutability": "view",
      "type": "function"
    }
  ],
  "bytecode": "0x608060405234801561001057600080fd5b50336000806101000a81548173ffffffffffffffffffffffffffffffffffffffff021916908373ffffffffffffffffffffffffffffffffffffffff160217905550610d76806100606000396000f3fe608060405234801561001057600080fd5b50600436106100565760003560e01c8062ce8e3e1461005b57806341c90d5614610079578063893d20e814610095578063c5a1c040146100b3578063ff2439b3146100e3575b600080fd5b610063610101565b6040516100709190610831565b60405180910390f35b610093600480360381019061008e91906109a6565b610142565b005b61009d610234565b6040516100aa9190610831565b60405180910390f35b6100cd60048036038101906100c89190610a25565b61025d565b6040516100da9190610c16565b60405180910390f35b6100eb6104e1565b6040516100f89190610c16565b60405180910390f35b600080600260006001815260200190815260200160002060009054906101000a900473ffffffffffffffffffffffffffffffffffffffff1690508091505090565b60006001805490509050600160405180606001604052808381526020018481526020016000151581525090806001815401808255809150506001900390600052602060002090600302016000909190919091506000820151816000015560208201518160010190805190602001906101bb92919061072a565b5060408201518160020160006101000a81548160ff0219169083151502179055505050336002600083815260200190815260200160002060006101000a81548173ffffffffffffffffffffffffffffffffffffffff021916908373ffffffffffffffffffffffffffffffffffffffff1602179055505050565b60008060009054906101000a900473ffffffffffffffffffffffffffffffffffffffff16905090565b606060006002600084815260200190815260200160002060009054906101000a900473ffffffffffffffffffffffffffffffffffffffff1690506000600180549050905060006001805480602002602001604051908101604052809291908181526020016000905b828210156103ae57838290600052602060002090600302016040518060600160405290816000820154815260200160018201805461030290610c67565b80601f016020809104026020016040519081016040528092919081815260200182805461032e90610c67565b801561037b5780601f106103505761010080835404028352916020019161037b565b820191906000526020600020905b81548152906001019060200180831161035e57829003601f168201915b505050505081526020016002820160009054906101000a900460ff161515151581525050815260200190600101906102c5565b50505050905060008267ffffffffffffffff8111156103d0576103cf61087b565b5b60405190808252806020026020018201604052801561040957816020015b6103f66107b0565b8152602001906001900390816103ee5790505b5090506000805b83518110156104d3578573ffffffffffffffffffffffffffffffffffffffff166002600083815260200190815260200160002060009054906101000a900473ffffffffffffffffffffffffffffffffffffffff1673ffffffffffffffffffffffffffffffffffffffff1614156104c057600084828151811061049557610494610c99565b5b60200260200101519050808484815181106104b3576104b2610c99565b5b6020026020010181905250505b80806104cb90610cf7565b915050610410565b508195505050505050919050565b60606000600180549050905060006001805480602002602001604051908101604052809291908181526020016000905b828210156105fa57838290600052602060002090600302016040518060600160405290816000820154815260200160018201805461054e90610c67565b80601f016020809104026020016040519081016040528092919081815260200182805461057a90610c67565b80156105c75780601f1061059c576101008083540402835291602001916105c7565b820191906000526020600020905b8154815290600101906020018083116105aa57829003601f168201915b505050505081526020016002820160009054906101000a900460ff16151515158152505081526020019060010190610511565b50505050905060008267ffffffffffffffff81111561061c5761061b61087b565b5b60405190808252806020026020018201604052801561065557816020015b6106426107b0565b81526020019060019003908161063a5790505b5090506000805b835181101561071f573373ffffffffffffffffffffffffffffffffffffffff166002600083815260200190815260200160002060009054906101000a900473ffffffffffffffffffffffffffffffffffffffff1673ffffffffffffffffffffffffffffffffffffffff16141561070c5760008482815181106106e1576106e0610c99565b5b60200260200101519050808484815181106106ff576106fe610c99565b5b6020026020010181905250505b808061071790610cf7565b91505061065c565b508194505050505090565b82805461073690610c67565b90600052602060002090601f016020900481019282610758576000855561079f565b82601f1061077157805160ff191683800117855561079f565b8280016001018555821561079f579182015b8281111561079e578251825591602001919060010190610783565b5b5090506107ac91906107d3565b5090565b604051806060016040528060008152602001606081526020016000151581525090565b5b808211156107ec5760008160009055506001016107d4565b5090565b600073ffffffffffffffffffffffffffffffffffffffff82169050919050565b600061081b826107f0565b9050919050565b61082b81610810565b82525050565b60006020820190506108466000830184610822565b92915050565b6000604051905090565b600080fd5b600080fd5b600080fd5b600080fd5b6000601f19601f8301169050919050565b7f4e487b7100000000000000000000000000000000000000000000000000000000600052604160045260246000fd5b6108b38261086a565b810181811067ffffffffffffffff821117156108d2576108d161087b565b5b80604052505050565b60006108e561084c565b90506108f182826108aa565b919050565b600067ffffffffffffffff8211156109115761091061087b565b5b61091a8261086a565b9050602081019050919050565b82818337600083830152505050565b6000610949610944846108f6565b6108db565b90508281526020810184848401111561096557610964610865565b5b610970848285610927565b509392505050565b600082601f83011261098d5761098c610860565b5b813561099d848260208601610936565b91505092915050565b6000602082840312156109bc576109bb610856565b5b600082013567ffffffffffffffff8111156109da576109d961085b565b5b6109e684828501610978565b91505092915050565b6000819050919050565b610a02816109ef565b8114610a0d57600080fd5b50565b600081359050610a1f816109f9565b92915050565b600060208284031215610a3b57610a3a610856565b5b6000610a4984828501610a10565b91505092915050565b600081519050919050565b600082825260208201905092915050565b6000819050602082019050919050565b610a87816109ef565b82525050565b600081519050919050565b600082825260208201905092915050565b60005b83811015610ac7578082015181840152602081019050610aac565b83811115610ad6576000848401525b50505050565b6000610ae782610a8d565b610af18185610a98565b9350610b01818560208601610aa9565b610b0a8161086a565b840191505092915050565b60008115159050919050565b610b2a81610b15565b82525050565b6000606083016000830151610b486000860182610a7e565b5060208301518482036020860152610b608282610adc565b9150506040830151610b756040860182610b21565b508091505092915050565b6000610b8c8383610b30565b905092915050565b6000602082019050919050565b6000610bac82610a52565b610bb68185610a5d565b935083602082028501610bc885610a6e565b8060005b85811015610c045784840389528151610be58582610b80565b9450610bf083610b94565b925060208a01995050600181019050610bcc565b50829750879550505050505092915050565b60006020820190508181036000830152610c308184610ba1565b905092915050565b7f4e487b7100000000000000000000000000000000000000000000000000000000600052602260045260246000fd5b60006002820490506001821680610c7f57607f821691505b60208210811415610c9357610c92610c38565b5b50919050565b7f4e487b7100000000000000000000000000000000000000000000000000000000600052603260045260246000fd5b7f4e487b7100000000000000000000000000000000000000000000000000000000600052601160045260246000fd5b6000610d02826109ef565b91507fffffffffffffffffffffffffffffffffffffffffffffffffffffffffffffffff821415610d3557610d34610cc8565b5b60018201905091905056fea2646970667358221220c77467f81d373aa3e607eccd06f560290c549d020c4ab809a01986d2b2c8bbce64736f6c634300080b0033",
  "immutableReferences": {},
  "source": "pragma solidity >=0.4.22 <0.9.0;\r\n\r\ncontract TaskManager {\r\n    address owner;\r\n    struct Task {\r\n        uint256 taskId;\r\n        string msg;\r\n        bool isDeleted;\r\n    }\r\n    Task[] tasks;\r\n    mapping(uint256 => address) users;\r\n    mapping(address => uint256) usersAddress;\r\n\r\n    constructor() {\r\n        owner = msg.sender;\r\n    }\r\n\r\n    modifier _IsAdmin() {\r\n        require(owner == msg.sender);\r\n        _;\r\n    }\r\n\r\n    function CreateTask(string memory taskmsg) external {\r\n        uint256 taskId = tasks.length;\r\n        tasks.push(Task(taskId, taskmsg, false));\r\n        users[taskId] = msg.sender;\r\n    }\r\n\r\n    function getMTasks() public view returns (Task[] memory) {\r\n        uint256 taskId = tasks.length;\r\n        Task[] memory t = tasks;\r\n        Task[] memory t2 = new Task[](taskId);\r\n        uint256 counter = 0;\r\n        for (uint256 index = 0; index < t.length; index++) {\r\n            if (users[index] == msg.sender) {\r\n                Task memory t3 = t[index];\r\n                t2[counter] = t3;\r\n            }\r\n        }\r\n        return t2;\r\n    }\r\n\r\n    function getTaskbyUser(uint256 id) public view returns (Task[] memory) {\r\n        address currentuser = users[id];\r\n        uint256 taskId = tasks.length;\r\n        Task[] memory t = tasks;\r\n        Task[] memory t2 = new Task[](taskId);\r\n        uint256 counter = 0;\r\n        for (uint256 index = 0; index < t.length; index++) {\r\n            if (users[index] == currentuser) {\r\n                Task memory t3 = t[index];\r\n                t2[counter] = t3;\r\n            }\r\n        }\r\n        return t2;\r\n    }\r\n\r\n    function getUsers() public view returns (address) {\r\n        address user = users[1];\r\n        return user;\r\n    }\r\n\r\n    function getOwner() public view returns (address) {\r\n        return owner;\r\n    }\r\n}\r\n",
  "sourcePath": "D:\\Solidity-Todo-List-with-Nextjs-Tailwind-CSS-Template\\client\\contracts\\Task.sol",
  "compiler": {
    "name": "solc",
    "version": "0.8.11+commit.d7f03943.Emscripten.clang"
  },
  "schemaVersion": "3.4.4",
  "updatedAt": "2022-12-20T17:54:10.370Z",
  "devdoc": {
    "kind": "dev",
    "methods": {},
    "version": 1
  },
  "userdoc": {
    "kind": "user",
    "methods": {},
    "version": 1
  }
}