{
  "contractName": "TaskManager",
  "abi": [
    {
      "inputs": [],
      "stateMutability": "nonpayable",
      "type": "constructor"
    },
    {
      "inputs": [
        {
          "internalType": "string",
          "name": "taskmsg",
          "type": "string"
        }
      ],
      "name": "CreateTask",
      "outputs": [],
      "stateMutability": "nonpayable",
      "type": "function"
    },
    {
      "inputs": [],
      "name": "getMTasks",
      "outputs": [
        {
          "components": [
            {
              "internalType": "uint256",
              "name": "taskId",
              "type": "uint256"
            },
            {
              "internalType": "string",
              "name": "msg",
              "type": "string"
            },
            {
              "internalType": "bool",
              "name": "isDeleted",
              "type": "bool"
            }
          ],
          "internalType": "struct TaskManager.Task[]",
          "name": "",
          "type": "tuple[]"
        }
      ],
      "stateMutability": "view",
      "type": "function",
      "constant": true
    },
    {
      "inputs": [
        {
          "internalType": "uint256",
          "name": "id",
          "type": "uint256"
        }
      ],
      "name": "getTaskbyUser",
      "outputs": [
        {
          "components": [
            {
              "internalType": "uint256",
              "name": "taskId",
              "type": "uint256"
            },
            {
              "internalType": "string",
              "name": "msg",
              "type": "string"
            },
            {
              "internalType": "bool",
              "name": "isDeleted",
              "type": "bool"
            }
          ],
          "internalType": "struct TaskManager.Task[]",
          "name": "",
          "type": "tuple[]"
        }
      ],
      "stateMutability": "view",
      "type": "function",
      "constant": true
    },
    {
      "inputs": [],
      "name": "getUsers",
      "outputs": [
        {
          "internalType": "address",
          "name": "",
          "type": "address"
        }
      ],
      "stateMutability": "view",
      "type": "function",
      "constant": true
    },
    {
      "inputs": [],
      "name": "getOwner",
      "outputs": [
        {
          "internalType": "address",
          "name": "",
          "type": "address"
        }
      ],
      "stateMutability": "view",
      "type": "function",
      "constant": true
    }
  ],
  "bytecode": "0x608060405234801561001057600080fd5b50336000806101000a81548173ffffffffffffffffffffffffffffffffffffffff021916908373ffffffffffffffffffffffffffffffffffffffff160217905550610d7d806100606000396000f3fe608060405234801561001057600080fd5b50600436106100565760003560e01c8062ce8e3e1461005b57806341c90d5614610079578063893d20e814610095578063c5a1c040146100b3578063ff2439b3146100e3575b600080fd5b610063610101565b6040516100709190610838565b60405180910390f35b610093600480360381019061008e91906109ad565b610142565b005b61009d61023b565b6040516100aa9190610838565b60405180910390f35b6100cd60048036038101906100c89190610a2c565b610264565b6040516100da9190610c1d565b60405180910390f35b6100eb6104e8565b6040516100f89190610c1d565b60405180910390f35b600080600260006001815260200190815260200160002060009054906101000a900473ffffffffffffffffffffffffffffffffffffffff1690508091505090565b600060018054905090506000806040518060600160405280848152602001858152602001831515815250905060018190806001815401808255809150506001900390600052602060002090600302016000909190919091506000820151816000015560208201518160010190805190602001906101c0929190610731565b5060408201518160020160006101000a81548160ff0219169083151502179055505050336002600085815260200190815260200160002060006101000a81548173ffffffffffffffffffffffffffffffffffffffff021916908373ffffffffffffffffffffffffffffffffffffffff16021790555050505050565b60008060009054906101000a900473ffffffffffffffffffffffffffffffffffffffff16905090565b606060006002600084815260200190815260200160002060009054906101000a900473ffffffffffffffffffffffffffffffffffffffff1690506000600180549050905060006001805480602002602001604051908101604052809291908181526020016000905b828210156103b557838290600052602060002090600302016040518060600160405290816000820154815260200160018201805461030990610c6e565b80601f016020809104026020016040519081016040528092919081815260200182805461033590610c6e565b80156103825780601f1061035757610100808354040283529160200191610382565b820191906000526020600020905b81548152906001019060200180831161036557829003601f168201915b505050505081526020016002820160009054906101000a900460ff161515151581525050815260200190600101906102cc565b50505050905060008267ffffffffffffffff8111156103d7576103d6610882565b5b60405190808252806020026020018201604052801561041057816020015b6103fd6107b7565b8152602001906001900390816103f55790505b5090506000805b83518110156104da578573ffffffffffffffffffffffffffffffffffffffff166002600083815260200190815260200160002060009054906101000a900473ffffffffffffffffffffffffffffffffffffffff1673ffffffffffffffffffffffffffffffffffffffff1614156104c757600084828151811061049c5761049b610ca0565b5b60200260200101519050808484815181106104ba576104b9610ca0565b5b6020026020010181905250505b80806104d290610cfe565b915050610417565b508195505050505050919050565b60606000600180549050905060006001805480602002602001604051908101604052809291908181526020016000905b8282101561060157838290600052602060002090600302016040518060600160405290816000820154815260200160018201805461055590610c6e565b80601f016020809104026020016040519081016040528092919081815260200182805461058190610c6e565b80156105ce5780601f106105a3576101008083540402835291602001916105ce565b820191906000526020600020905b8154815290600101906020018083116105b157829003601f168201915b505050505081526020016002820160009054906101000a900460ff16151515158152505081526020019060010190610518565b50505050905060008267ffffffffffffffff81111561062357610622610882565b5b60405190808252806020026020018201604052801561065c57816020015b6106496107b7565b8152602001906001900390816106415790505b5090506000805b8351811015610726573373ffffffffffffffffffffffffffffffffffffffff166002600083815260200190815260200160002060009054906101000a900473ffffffffffffffffffffffffffffffffffffffff1673ffffffffffffffffffffffffffffffffffffffff1614156107135760008482815181106106e8576106e7610ca0565b5b602002602001015190508084848151811061070657610705610ca0565b5b6020026020010181905250505b808061071e90610cfe565b915050610663565b508194505050505090565b82805461073d90610c6e565b90600052602060002090601f01602090048101928261075f57600085556107a6565b82601f1061077857805160ff19168380011785556107a6565b828001600101855582156107a6579182015b828111156107a557825182559160200191906001019061078a565b5b5090506107b391906107da565b5090565b604051806060016040528060008152602001606081526020016000151581525090565b5b808211156107f35760008160009055506001016107db565b5090565b600073ffffffffffffffffffffffffffffffffffffffff82169050919050565b6000610822826107f7565b9050919050565b61083281610817565b82525050565b600060208201905061084d6000830184610829565b92915050565b6000604051905090565b600080fd5b600080fd5b600080fd5b600080fd5b6000601f19601f8301169050919050565b7f4e487b7100000000000000000000000000000000000000000000000000000000600052604160045260246000fd5b6108ba82610871565b810181811067ffffffffffffffff821117156108d9576108d8610882565b5b80604052505050565b60006108ec610853565b90506108f882826108b1565b919050565b600067ffffffffffffffff82111561091857610917610882565b5b61092182610871565b9050602081019050919050565b82818337600083830152505050565b600061095061094b846108fd565b6108e2565b90508281526020810184848401111561096c5761096b61086c565b5b61097784828561092e565b509392505050565b600082601f83011261099457610993610867565b5b81356109a484826020860161093d565b91505092915050565b6000602082840312156109c3576109c261085d565b5b600082013567ffffffffffffffff8111156109e1576109e0610862565b5b6109ed8482850161097f565b91505092915050565b6000819050919050565b610a09816109f6565b8114610a1457600080fd5b50565b600081359050610a2681610a00565b92915050565b600060208284031215610a4257610a4161085d565b5b6000610a5084828501610a17565b91505092915050565b600081519050919050565b600082825260208201905092915050565b6000819050602082019050919050565b610a8e816109f6565b82525050565b600081519050919050565b600082825260208201905092915050565b60005b83811015610ace578082015181840152602081019050610ab3565b83811115610add576000848401525b50505050565b6000610aee82610a94565b610af88185610a9f565b9350610b08818560208601610ab0565b610b1181610871565b840191505092915050565b60008115159050919050565b610b3181610b1c565b82525050565b6000606083016000830151610b4f6000860182610a85565b5060208301518482036020860152610b678282610ae3565b9150506040830151610b7c6040860182610b28565b508091505092915050565b6000610b938383610b37565b905092915050565b6000602082019050919050565b6000610bb382610a59565b610bbd8185610a64565b935083602082028501610bcf85610a75565b8060005b85811015610c0b5784840389528151610bec8582610b87565b9450610bf783610b9b565b925060208a01995050600181019050610bd3565b50829750879550505050505092915050565b60006020820190508181036000830152610c378184610ba8565b905092915050565b7f4e487b7100000000000000000000000000000000000000000000000000000000600052602260045260246000fd5b60006002820490506001821680610c8657607f821691505b60208210811415610c9a57610c99610c3f565b5b50919050565b7f4e487b7100000000000000000000000000000000000000000000000000000000600052603260045260246000fd5b7f4e487b7100000000000000000000000000000000000000000000000000000000600052601160045260246000fd5b6000610d09826109f6565b91507fffffffffffffffffffffffffffffffffffffffffffffffffffffffffffffffff821415610d3c57610d3b610ccf565b5b60018201905091905056fea26469706673582212200c154807a0be37633fad6dfeb424c9baef826eecab7f3c3ddb0aca77f647bc1964736f6c634300080b0033",
  "immutableReferences": {},
  "source": "pragma solidity >=0.4.22 <0.9.0;\r\n\r\ncontract TaskManager {\r\n    address owner;\r\n    struct Task {\r\n        uint256 taskId;\r\n        string msg;\r\n        bool isDeleted;\r\n    }\r\n    Task[] tasks;\r\n    mapping(uint256 => address) users;\r\n    mapping(address => uint256) usersAddress;\r\n\r\n    constructor() {\r\n        owner = msg.sender;\r\n    }\r\n\r\n    modifier _IsAdmin() {\r\n        require(owner == msg.sender);\r\n        _;\r\n    }\r\n\r\n    function CreateTask(string memory taskmsg) external {\r\n        uint256 taskId = tasks.length;\r\n        bool isDeleted=false;\r\n        Task memory newTask= Task({taskId:taskId,msg:taskmsg,isDeleted:isDeleted});\r\n        tasks.push(newTask);\r\n        users[taskId] = msg.sender;\r\n    }\r\n\r\n    function getMTasks() public view returns (Task[] memory) {\r\n        uint256 taskId = tasks.length;\r\n        Task[] memory t = tasks;\r\n        Task[] memory t2 = new Task[](taskId);\r\n        uint256 counter = 0;\r\n        for (uint256 index = 0; index < t.length; index++) {\r\n            if (users[index] == msg.sender) {\r\n                Task memory t3 = t[index];\r\n                t2[counter] = t3;\r\n            }\r\n        }\r\n        return t2;\r\n    }\r\n\r\n    function getTaskbyUser(uint256 id) public view returns (Task[] memory) {\r\n        address currentuser = users[id];\r\n        uint256 taskId = tasks.length;\r\n        Task[] memory t = tasks;\r\n        Task[] memory t2 = new Task[](taskId);\r\n        uint256 counter = 0;\r\n        for (uint256 index = 0; index < t.length; index++) {\r\n            if (users[index] == currentuser) {\r\n                Task memory t3 = t[index];\r\n                t2[counter] = t3;\r\n            }\r\n        }\r\n        return t2;\r\n    }\r\n\r\n    function getUsers() public view returns (address) {\r\n        address user = users[1];\r\n        return user;\r\n    }\r\n\r\n    function getOwner() public view returns (address) {\r\n        return owner;\r\n    }\r\n}\r\n",
  "sourcePath": "D:\\Solidity-Todo-List-with-Nextjs-Tailwind-CSS-Template\\client\\contracts\\Task.sol",
  "compiler": {
    "name": "solc",
    "version": "0.8.11+commit.d7f03943.Emscripten.clang"
  },
  "schemaVersion": "3.4.4",
  "updatedAt": "2022-12-21T11:52:48.057Z",
  "networkType": "ethereum",
  "devdoc": {
    "kind": "dev",
    "methods": {},
    "version": 1
  },
  "userdoc": {
    "kind": "user",
    "methods": {},
    "version": 1
  }
}